{
  "_format": "hh-sol-artifact-1",
  "contractName": "Airdrop",
  "sourceName": "contracts/claimables.sol",
  "abi": [
    {
      "inputs": [
        {
          "internalType": "string",
          "name": "_baseURI",
          "type": "string"
        }
      ],
      "stateMutability": "nonpayable",
      "type": "constructor"
    },
    {
      "inputs": [
        {
          "internalType": "address",
          "name": "sender",
          "type": "address"
        },
        {
          "internalType": "uint256",
          "name": "tokenId",
          "type": "uint256"
        },
        {
          "internalType": "address",
          "name": "owner",
          "type": "address"
        }
      ],
      "name": "ERC721IncorrectOwner",
      "type": "error"
    },
    {
      "inputs": [
        {
          "internalType": "address",
          "name": "operator",
          "type": "address"
        },
        {
          "internalType": "uint256",
          "name": "tokenId",
          "type": "uint256"
        }
      ],
      "name": "ERC721InsufficientApproval",
      "type": "error"
    },
    {
      "inputs": [
        {
          "internalType": "address",
          "name": "approver",
          "type": "address"
        }
      ],
      "name": "ERC721InvalidApprover",
      "type": "error"
    },
    {
      "inputs": [
        {
          "internalType": "address",
          "name": "operator",
          "type": "address"
        }
      ],
      "name": "ERC721InvalidOperator",
      "type": "error"
    },
    {
      "inputs": [
        {
          "internalType": "address",
          "name": "owner",
          "type": "address"
        }
      ],
      "name": "ERC721InvalidOwner",
      "type": "error"
    },
    {
      "inputs": [
        {
          "internalType": "address",
          "name": "receiver",
          "type": "address"
        }
      ],
      "name": "ERC721InvalidReceiver",
      "type": "error"
    },
    {
      "inputs": [
        {
          "internalType": "address",
          "name": "sender",
          "type": "address"
        }
      ],
      "name": "ERC721InvalidSender",
      "type": "error"
    },
    {
      "inputs": [
        {
          "internalType": "uint256",
          "name": "tokenId",
          "type": "uint256"
        }
      ],
      "name": "ERC721NonexistentToken",
      "type": "error"
    },
    {
      "inputs": [
        {
          "internalType": "address",
          "name": "owner",
          "type": "address"
        }
      ],
      "name": "OwnableInvalidOwner",
      "type": "error"
    },
    {
      "inputs": [
        {
          "internalType": "address",
          "name": "account",
          "type": "address"
        }
      ],
      "name": "OwnableUnauthorizedAccount",
      "type": "error"
    },
    {
      "anonymous": false,
      "inputs": [
        {
          "indexed": true,
          "internalType": "address",
          "name": "owner",
          "type": "address"
        },
        {
          "indexed": true,
          "internalType": "address",
          "name": "approved",
          "type": "address"
        },
        {
          "indexed": true,
          "internalType": "uint256",
          "name": "tokenId",
          "type": "uint256"
        }
      ],
      "name": "Approval",
      "type": "event"
    },
    {
      "anonymous": false,
      "inputs": [
        {
          "indexed": true,
          "internalType": "address",
          "name": "owner",
          "type": "address"
        },
        {
          "indexed": true,
          "internalType": "address",
          "name": "operator",
          "type": "address"
        },
        {
          "indexed": false,
          "internalType": "bool",
          "name": "approved",
          "type": "bool"
        }
      ],
      "name": "ApprovalForAll",
      "type": "event"
    },
    {
      "anonymous": false,
      "inputs": [
        {
          "indexed": true,
          "internalType": "address",
          "name": "previousOwner",
          "type": "address"
        },
        {
          "indexed": true,
          "internalType": "address",
          "name": "newOwner",
          "type": "address"
        }
      ],
      "name": "OwnershipTransferred",
      "type": "event"
    },
    {
      "anonymous": false,
      "inputs": [
        {
          "indexed": true,
          "internalType": "address",
          "name": "from",
          "type": "address"
        },
        {
          "indexed": true,
          "internalType": "address",
          "name": "to",
          "type": "address"
        },
        {
          "indexed": true,
          "internalType": "uint256",
          "name": "tokenId",
          "type": "uint256"
        }
      ],
      "name": "Transfer",
      "type": "event"
    },
    {
      "inputs": [],
      "name": "MAX_SUPPLY",
      "outputs": [
        {
          "internalType": "uint256",
          "name": "",
          "type": "uint256"
        }
      ],
      "stateMutability": "view",
      "type": "function"
    },
    {
      "inputs": [
        {
          "internalType": "address",
          "name": "to",
          "type": "address"
        },
        {
          "internalType": "uint256",
          "name": "tokenId",
          "type": "uint256"
        }
      ],
      "name": "approve",
      "outputs": [],
      "stateMutability": "nonpayable",
      "type": "function"
    },
    {
      "inputs": [
        {
          "internalType": "address",
          "name": "owner",
          "type": "address"
        }
      ],
      "name": "balanceOf",
      "outputs": [
        {
          "internalType": "uint256",
          "name": "",
          "type": "uint256"
        }
      ],
      "stateMutability": "view",
      "type": "function"
    },
    {
      "inputs": [],
      "name": "claim",
      "outputs": [],
      "stateMutability": "nonpayable",
      "type": "function"
    },
    {
      "inputs": [
        {
          "internalType": "uint256",
          "name": "tokenId",
          "type": "uint256"
        }
      ],
      "name": "getApproved",
      "outputs": [
        {
          "internalType": "address",
          "name": "",
          "type": "address"
        }
      ],
      "stateMutability": "view",
      "type": "function"
    },
    {
      "inputs": [
        {
          "internalType": "address",
          "name": "",
          "type": "address"
        }
      ],
      "name": "hasClaimed",
      "outputs": [
        {
          "internalType": "bool",
          "name": "",
          "type": "bool"
        }
      ],
      "stateMutability": "view",
      "type": "function"
    },
    {
      "inputs": [
        {
          "internalType": "address",
          "name": "owner",
          "type": "address"
        },
        {
          "internalType": "address",
          "name": "operator",
          "type": "address"
        }
      ],
      "name": "isApprovedForAll",
      "outputs": [
        {
          "internalType": "bool",
          "name": "",
          "type": "bool"
        }
      ],
      "stateMutability": "view",
      "type": "function"
    },
    {
      "inputs": [],
      "name": "name",
      "outputs": [
        {
          "internalType": "string",
          "name": "",
          "type": "string"
        }
      ],
      "stateMutability": "view",
      "type": "function"
    },
    {
      "inputs": [],
      "name": "owner",
      "outputs": [
        {
          "internalType": "address",
          "name": "",
          "type": "address"
        }
      ],
      "stateMutability": "view",
      "type": "function"
    },
    {
      "inputs": [
        {
          "internalType": "uint256",
          "name": "tokenId",
          "type": "uint256"
        }
      ],
      "name": "ownerOf",
      "outputs": [
        {
          "internalType": "address",
          "name": "",
          "type": "address"
        }
      ],
      "stateMutability": "view",
      "type": "function"
    },
    {
      "inputs": [],
      "name": "renounceOwnership",
      "outputs": [],
      "stateMutability": "nonpayable",
      "type": "function"
    },
    {
      "inputs": [
        {
          "internalType": "address",
          "name": "from",
          "type": "address"
        },
        {
          "internalType": "address",
          "name": "to",
          "type": "address"
        },
        {
          "internalType": "uint256",
          "name": "tokenId",
          "type": "uint256"
        }
      ],
      "name": "safeTransferFrom",
      "outputs": [],
      "stateMutability": "nonpayable",
      "type": "function"
    },
    {
      "inputs": [
        {
          "internalType": "address",
          "name": "from",
          "type": "address"
        },
        {
          "internalType": "address",
          "name": "to",
          "type": "address"
        },
        {
          "internalType": "uint256",
          "name": "tokenId",
          "type": "uint256"
        },
        {
          "internalType": "bytes",
          "name": "data",
          "type": "bytes"
        }
      ],
      "name": "safeTransferFrom",
      "outputs": [],
      "stateMutability": "nonpayable",
      "type": "function"
    },
    {
      "inputs": [
        {
          "internalType": "address",
          "name": "operator",
          "type": "address"
        },
        {
          "internalType": "bool",
          "name": "approved",
          "type": "bool"
        }
      ],
      "name": "setApprovalForAll",
      "outputs": [],
      "stateMutability": "nonpayable",
      "type": "function"
    },
    {
      "inputs": [
        {
          "internalType": "string",
          "name": "_newBaseURI",
          "type": "string"
        }
      ],
      "name": "setBaseURI",
      "outputs": [],
      "stateMutability": "nonpayable",
      "type": "function"
    },
    {
      "inputs": [
        {
          "internalType": "bytes4",
          "name": "interfaceId",
          "type": "bytes4"
        }
      ],
      "name": "supportsInterface",
      "outputs": [
        {
          "internalType": "bool",
          "name": "",
          "type": "bool"
        }
      ],
      "stateMutability": "view",
      "type": "function"
    },
    {
      "inputs": [],
      "name": "symbol",
      "outputs": [
        {
          "internalType": "string",
          "name": "",
          "type": "string"
        }
      ],
      "stateMutability": "view",
      "type": "function"
    },
    {
      "inputs": [],
      "name": "tokenIdCounter",
      "outputs": [
        {
          "internalType": "uint256",
          "name": "",
          "type": "uint256"
        }
      ],
      "stateMutability": "view",
      "type": "function"
    },
    {
      "inputs": [
        {
          "internalType": "uint256",
          "name": "tokenId",
          "type": "uint256"
        }
      ],
      "name": "tokenURI",
      "outputs": [
        {
          "internalType": "string",
          "name": "",
          "type": "string"
        }
      ],
      "stateMutability": "view",
      "type": "function"
    },
    {
      "inputs": [
        {
          "internalType": "address",
          "name": "from",
          "type": "address"
        },
        {
          "internalType": "address",
          "name": "to",
          "type": "address"
        },
        {
          "internalType": "uint256",
          "name": "tokenId",
          "type": "uint256"
        }
      ],
      "name": "transferFrom",
      "outputs": [],
      "stateMutability": "nonpayable",
      "type": "function"
    },
    {
      "inputs": [
        {
          "internalType": "address",
          "name": "newOwner",
          "type": "address"
        }
      ],
      "name": "transferOwnership",
      "outputs": [],
      "stateMutability": "nonpayable",
      "type": "function"
    }
  ],
  "bytecode": "0x608060405234801561001057600080fd5b50604051612e99380380612e998339818101604052810190610032919061039c565b336040518060400160405280600c81526020017f676f646272616e642e65746800000000000000000000000000000000000000008152506040518060400160405280600881526020017f474f444252414e4400000000000000000000000000000000000000000000000081525081600090816100ae9190610606565b5080600190816100be9190610606565b505050600073ffffffffffffffffffffffffffffffffffffffff168173ffffffffffffffffffffffffffffffffffffffff16036101335760006040517f1e4fbdf700000000000000000000000000000000000000000000000000000000815260040161012a9190610719565b60405180910390fd5b6101428161016160201b60201c565b5080600890816101529190610606565b50600160078190555050610734565b6000600660009054906101000a900473ffffffffffffffffffffffffffffffffffffffff16905081600660006101000a81548173ffffffffffffffffffffffffffffffffffffffff021916908373ffffffffffffffffffffffffffffffffffffffff1602179055508173ffffffffffffffffffffffffffffffffffffffff168173ffffffffffffffffffffffffffffffffffffffff167f8be0079c531659141344cd1fd0a4f28419497f9722a3daafe3b4186f6b6457e060405160405180910390a35050565b6000604051905090565b600080fd5b600080fd5b600080fd5b600080fd5b6000601f19601f8301169050919050565b7f4e487b7100000000000000000000000000000000000000000000000000000000600052604160045260246000fd5b61028e82610245565b810181811067ffffffffffffffff821117156102ad576102ac610256565b5b80604052505050565b60006102c0610227565b90506102cc8282610285565b919050565b600067ffffffffffffffff8211156102ec576102eb610256565b5b6102f582610245565b9050602081019050919050565b60005b83811015610320578082015181840152602081019050610305565b60008484015250505050565b600061033f61033a846102d1565b6102b6565b90508281526020810184848401111561035b5761035a610240565b5b610366848285610302565b509392505050565b600082601f8301126103835761038261023b565b5b815161039384826020860161032c565b91505092915050565b6000602082840312156103b2576103b1610231565b5b600082015167ffffffffffffffff8111156103d0576103cf610236565b5b6103dc8482850161036e565b91505092915050565b600081519050919050565b7f4e487b7100000000000000000000000000000000000000000000000000000000600052602260045260246000fd5b6000600282049050600182168061043757607f821691505b60208210810361044a576104496103f0565b5b50919050565b60008190508160005260206000209050919050565b60006020601f8301049050919050565b600082821b905092915050565b6000600883026104b27fffffffffffffffffffffffffffffffffffffffffffffffffffffffffffffffff82610475565b6104bc8683610475565b95508019841693508086168417925050509392505050565b6000819050919050565b6000819050919050565b60006105036104fe6104f9846104d4565b6104de565b6104d4565b9050919050565b6000819050919050565b61051d836104e8565b6105316105298261050a565b848454610482565b825550505050565b600090565b610546610539565b610551818484610514565b505050565b5b818110156105755761056a60008261053e565b600181019050610557565b5050565b601f8211156105ba5761058b81610450565b61059484610465565b810160208510156105a3578190505b6105b76105af85610465565b830182610556565b50505b505050565b600082821c905092915050565b60006105dd600019846008026105bf565b1980831691505092915050565b60006105f683836105cc565b9150826002028217905092915050565b61060f826103e5565b67ffffffffffffffff81111561062857610627610256565b5b610632825461041f565b61063d828285610579565b600060209050601f831160018114610670576000841561065e578287015190505b61066885826105ea565b8655506106d0565b601f19841661067e86610450565b60005b828110156106a657848901518255600182019150602085019450602081019050610681565b868310156106c357848901516106bf601f8916826105cc565b8355505b6001600288020188555050505b505050505050565b600073ffffffffffffffffffffffffffffffffffffffff82169050919050565b6000610703826106d8565b9050919050565b610713816106f8565b82525050565b600060208201905061072e600083018461070a565b92915050565b612756806107436000396000f3fe608060405234801561001057600080fd5b50600436106101375760003560e01c806370a08231116100b857806398bdf6f51161007c57806398bdf6f514610328578063a22cb46514610346578063b88d4fde14610362578063c87b56dd1461037e578063e985e9c5146103ae578063f2fde38b146103de57610137565b806370a0823114610282578063715018a6146102b257806373b2e80e146102bc5780638da5cb5b146102ec57806395d89b411461030a57610137565b806332cb6b0c116100ff57806332cb6b0c146101f257806342842e0e146102105780634e71d92d1461022c57806355f804b3146102365780636352211e1461025257610137565b806301ffc9a71461013c57806306fdde031461016c578063081812fc1461018a578063095ea7b3146101ba57806323b872dd146101d6575b600080fd5b61015660048036038101906101519190611ae9565b6103fa565b6040516101639190611b31565b60405180910390f35b6101746104dc565b6040516101819190611bdc565b60405180910390f35b6101a4600480360381019061019f9190611c34565b61056e565b6040516101b19190611ca2565b60405180910390f35b6101d460048036038101906101cf9190611ce9565b61058a565b005b6101f060048036038101906101eb9190611d29565b6105a0565b005b6101fa6106a2565b6040516102079190611d8b565b60405180910390f35b61022a60048036038101906102259190611d29565b6106a7565b005b6102346106c7565b005b610250600480360381019061024b9190611edb565b610818565b005b61026c60048036038101906102679190611c34565b610833565b6040516102799190611ca2565b60405180910390f35b61029c60048036038101906102979190611f24565b610845565b6040516102a99190611d8b565b60405180910390f35b6102ba6108ff565b005b6102d660048036038101906102d19190611f24565b610913565b6040516102e39190611b31565b60405180910390f35b6102f4610933565b6040516103019190611ca2565b60405180910390f35b61031261095d565b60405161031f9190611bdc565b60405180910390f35b6103306109ef565b60405161033d9190611d8b565b60405180910390f35b610360600480360381019061035b9190611f7d565b6109f5565b005b61037c6004803603810190610377919061205e565b610a0b565b005b61039860048036038101906103939190611c34565b610a30565b6040516103a59190611bdc565b60405180910390f35b6103c860048036038101906103c391906120e1565b610a99565b6040516103d59190611b31565b60405180910390f35b6103f860048036038101906103f39190611f24565b610b2d565b005b60007f80ac58cd000000000000000000000000000000000000000000000000000000007bffffffffffffffffffffffffffffffffffffffffffffffffffffffff1916827bffffffffffffffffffffffffffffffffffffffffffffffffffffffff191614806104c557507f5b5e139f000000000000000000000000000000000000000000000000000000007bffffffffffffffffffffffffffffffffffffffffffffffffffffffff1916827bffffffffffffffffffffffffffffffffffffffffffffffffffffffff1916145b806104d557506104d482610bb3565b5b9050919050565b6060600080546104eb90612150565b80601f016020809104026020016040519081016040528092919081815260200182805461051790612150565b80156105645780601f1061053957610100808354040283529160200191610564565b820191906000526020600020905b81548152906001019060200180831161054757829003601f168201915b5050505050905090565b600061057982610c1d565b5061058382610ca5565b9050919050565b61059c8282610597610ce2565b610cea565b5050565b600073ffffffffffffffffffffffffffffffffffffffff168273ffffffffffffffffffffffffffffffffffffffff16036106125760006040517f64a0ae920000000000000000000000000000000000000000000000000000000081526004016106099190611ca2565b60405180910390fd5b60006106268383610621610ce2565b610cfc565b90508373ffffffffffffffffffffffffffffffffffffffff168173ffffffffffffffffffffffffffffffffffffffff161461069c578382826040517f64283d7b00000000000000000000000000000000000000000000000000000000815260040161069393929190612181565b60405180910390fd5b50505050565b603281565b6106c283838360405180602001604052806000815250610a0b565b505050565b600960003373ffffffffffffffffffffffffffffffffffffffff1673ffffffffffffffffffffffffffffffffffffffff16815260200190815260200160002060009054906101000a900460ff1615610754576040517f08c379a000000000000000000000000000000000000000000000000000000000815260040161074b90612204565b60405180910390fd5b6032600754111561079a576040517f08c379a000000000000000000000000000000000000000000000000000000000815260040161079190612270565b60405180910390fd5b6001600960003373ffffffffffffffffffffffffffffffffffffffff1673ffffffffffffffffffffffffffffffffffffffff16815260200190815260200160002060006101000a81548160ff0219169083151502179055506107fe33600754610f16565b60076000815480929190610811906122bf565b9190505550565b610820610f34565b806008908161082f91906124b3565b5050565b600061083e82610c1d565b9050919050565b60008073ffffffffffffffffffffffffffffffffffffffff168273ffffffffffffffffffffffffffffffffffffffff16036108b85760006040517f89c62b640000000000000000000000000000000000000000000000000000000081526004016108af9190611ca2565b60405180910390fd5b600360008373ffffffffffffffffffffffffffffffffffffffff1673ffffffffffffffffffffffffffffffffffffffff168152602001908152602001600020549050919050565b610907610f34565b6109116000610fbb565b565b60096020528060005260406000206000915054906101000a900460ff1681565b6000600660009054906101000a900473ffffffffffffffffffffffffffffffffffffffff16905090565b60606001805461096c90612150565b80601f016020809104026020016040519081016040528092919081815260200182805461099890612150565b80156109e55780601f106109ba576101008083540402835291602001916109e5565b820191906000526020600020905b8154815290600101906020018083116109c857829003601f168201915b5050505050905090565b60075481565b610a07610a00610ce2565b8383611081565b5050565b610a168484846105a0565b610a2a610a21610ce2565b858585856111f0565b50505050565b6060610a3b82610c1d565b506000610a466113a1565b90506000815111610a665760405180602001604052806000815250610a91565b80610a70846113b8565b604051602001610a819291906125c1565b6040516020818303038152906040525b915050919050565b6000600560008473ffffffffffffffffffffffffffffffffffffffff1673ffffffffffffffffffffffffffffffffffffffff16815260200190815260200160002060008373ffffffffffffffffffffffffffffffffffffffff1673ffffffffffffffffffffffffffffffffffffffff16815260200190815260200160002060009054906101000a900460ff16905092915050565b610b35610f34565b600073ffffffffffffffffffffffffffffffffffffffff168173ffffffffffffffffffffffffffffffffffffffff1603610ba75760006040517f1e4fbdf7000000000000000000000000000000000000000000000000000000008152600401610b9e9190611ca2565b60405180910390fd5b610bb081610fbb565b50565b60007f01ffc9a7000000000000000000000000000000000000000000000000000000007bffffffffffffffffffffffffffffffffffffffffffffffffffffffff1916827bffffffffffffffffffffffffffffffffffffffffffffffffffffffff1916149050919050565b600080610c2983611486565b9050600073ffffffffffffffffffffffffffffffffffffffff168173ffffffffffffffffffffffffffffffffffffffff1603610c9c57826040517f7e273289000000000000000000000000000000000000000000000000000000008152600401610c939190611d8b565b60405180910390fd5b80915050919050565b60006004600083815260200190815260200160002060009054906101000a900473ffffffffffffffffffffffffffffffffffffffff169050919050565b600033905090565b610cf783838360016114c3565b505050565b600080610d0884611486565b9050600073ffffffffffffffffffffffffffffffffffffffff168373ffffffffffffffffffffffffffffffffffffffff1614610d4a57610d49818486611688565b5b600073ffffffffffffffffffffffffffffffffffffffff168173ffffffffffffffffffffffffffffffffffffffff1614610ddb57610d8c6000856000806114c3565b6001600360008373ffffffffffffffffffffffffffffffffffffffff1673ffffffffffffffffffffffffffffffffffffffff168152602001908152602001600020600082825403925050819055505b600073ffffffffffffffffffffffffffffffffffffffff168573ffffffffffffffffffffffffffffffffffffffff1614610e5e576001600360008773ffffffffffffffffffffffffffffffffffffffff1673ffffffffffffffffffffffffffffffffffffffff168152602001908152602001600020600082825401925050819055505b846002600086815260200190815260200160002060006101000a81548173ffffffffffffffffffffffffffffffffffffffff021916908373ffffffffffffffffffffffffffffffffffffffff160217905550838573ffffffffffffffffffffffffffffffffffffffff168273ffffffffffffffffffffffffffffffffffffffff167fddf252ad1be2c89b69c2b068fc378daa952ba7f163c4a11628f55a4df523b3ef60405160405180910390a4809150509392505050565b610f3082826040518060200160405280600081525061174c565b5050565b610f3c610ce2565b73ffffffffffffffffffffffffffffffffffffffff16610f5a610933565b73ffffffffffffffffffffffffffffffffffffffff1614610fb957610f7d610ce2565b6040517f118cdaa7000000000000000000000000000000000000000000000000000000008152600401610fb09190611ca2565b60405180910390fd5b565b6000600660009054906101000a900473ffffffffffffffffffffffffffffffffffffffff16905081600660006101000a81548173ffffffffffffffffffffffffffffffffffffffff021916908373ffffffffffffffffffffffffffffffffffffffff1602179055508173ffffffffffffffffffffffffffffffffffffffff168173ffffffffffffffffffffffffffffffffffffffff167f8be0079c531659141344cd1fd0a4f28419497f9722a3daafe3b4186f6b6457e060405160405180910390a35050565b600073ffffffffffffffffffffffffffffffffffffffff168273ffffffffffffffffffffffffffffffffffffffff16036110f257816040517f5b08ba180000000000000000000000000000000000000000000000000000000081526004016110e99190611ca2565b60405180910390fd5b80600560008573ffffffffffffffffffffffffffffffffffffffff1673ffffffffffffffffffffffffffffffffffffffff16815260200190815260200160002060008473ffffffffffffffffffffffffffffffffffffffff1673ffffffffffffffffffffffffffffffffffffffff16815260200190815260200160002060006101000a81548160ff0219169083151502179055508173ffffffffffffffffffffffffffffffffffffffff168373ffffffffffffffffffffffffffffffffffffffff167f17307eab39ab6107e8899845ad3d59bd9653f200f220920489ca2b5937696c31836040516111e39190611b31565b60405180910390a3505050565b60008373ffffffffffffffffffffffffffffffffffffffff163b111561139a578273ffffffffffffffffffffffffffffffffffffffff1663150b7a02868685856040518563ffffffff1660e01b815260040161124f949392919061263a565b6020604051808303816000875af192505050801561128b57506040513d601f19601f82011682018060405250810190611288919061269b565b60015b61130f573d80600081146112bb576040519150601f19603f3d011682016040523d82523d6000602084013e6112c0565b606091505b50600081510361130757836040517f64a0ae920000000000000000000000000000000000000000000000000000000081526004016112fe9190611ca2565b60405180910390fd5b805160208201fd5b63150b7a0260e01b7bffffffffffffffffffffffffffffffffffffffffffffffffffffffff1916817bffffffffffffffffffffffffffffffffffffffffffffffffffffffff19161461139857836040517f64a0ae9200000000000000000000000000000000000000000000000000000000815260040161138f9190611ca2565b60405180910390fd5b505b5050505050565b606060405180602001604052806000815250905090565b6060600060016113c784611770565b01905060008167ffffffffffffffff8111156113e6576113e5611db0565b5b6040519080825280601f01601f1916602001820160405280156114185781602001600182028036833780820191505090505b509050600082602083010190505b60011561147b578080600190039150507f3031323334353637383961626364656600000000000000000000000000000000600a86061a8153600a858161146f5761146e6126c8565b5b04945060008503611426575b819350505050919050565b60006002600083815260200190815260200160002060009054906101000a900473ffffffffffffffffffffffffffffffffffffffff169050919050565b80806114fc5750600073ffffffffffffffffffffffffffffffffffffffff168273ffffffffffffffffffffffffffffffffffffffff1614155b1561163057600061150c84610c1d565b9050600073ffffffffffffffffffffffffffffffffffffffff168373ffffffffffffffffffffffffffffffffffffffff161415801561157757508273ffffffffffffffffffffffffffffffffffffffff168173ffffffffffffffffffffffffffffffffffffffff1614155b801561158a57506115888184610a99565b155b156115cc57826040517fa9fbf51f0000000000000000000000000000000000000000000000000000000081526004016115c39190611ca2565b60405180910390fd5b811561162e57838573ffffffffffffffffffffffffffffffffffffffff168273ffffffffffffffffffffffffffffffffffffffff167f8c5be1e5ebec7d5bd14f71427d1e84f3dd0314c0f7b2291e5b200ac8c7c3b92560405160405180910390a45b505b836004600085815260200190815260200160002060006101000a81548173ffffffffffffffffffffffffffffffffffffffff021916908373ffffffffffffffffffffffffffffffffffffffff16021790555050505050565b6116938383836118c3565b61174757600073ffffffffffffffffffffffffffffffffffffffff168373ffffffffffffffffffffffffffffffffffffffff160361170857806040517f7e2732890000000000000000000000000000000000000000000000000000000081526004016116ff9190611d8b565b60405180910390fd5b81816040517f177e802f00000000000000000000000000000000000000000000000000000000815260040161173e9291906126f7565b60405180910390fd5b505050565b6117568383611984565b61176b611761610ce2565b60008585856111f0565b505050565b600080600090507a184f03e93ff9f4daa797ed6e38ed64bf6a1f01000000000000000083106117ce577a184f03e93ff9f4daa797ed6e38ed64bf6a1f01000000000000000083816117c4576117c36126c8565b5b0492506040810190505b6d04ee2d6d415b85acef8100000000831061180b576d04ee2d6d415b85acef81000000008381611801576118006126c8565b5b0492506020810190505b662386f26fc10000831061183a57662386f26fc1000083816118305761182f6126c8565b5b0492506010810190505b6305f5e1008310611863576305f5e1008381611859576118586126c8565b5b0492506008810190505b612710831061188857612710838161187e5761187d6126c8565b5b0492506004810190505b606483106118ab57606483816118a1576118a06126c8565b5b0492506002810190505b600a83106118ba576001810190505b80915050919050565b60008073ffffffffffffffffffffffffffffffffffffffff168373ffffffffffffffffffffffffffffffffffffffff161415801561197b57508273ffffffffffffffffffffffffffffffffffffffff168473ffffffffffffffffffffffffffffffffffffffff16148061193c575061193b8484610a99565b5b8061197a57508273ffffffffffffffffffffffffffffffffffffffff1661196283610ca5565b73ffffffffffffffffffffffffffffffffffffffff16145b5b90509392505050565b600073ffffffffffffffffffffffffffffffffffffffff168273ffffffffffffffffffffffffffffffffffffffff16036119f65760006040517f64a0ae920000000000000000000000000000000000000000000000000000000081526004016119ed9190611ca2565b60405180910390fd5b6000611a0483836000610cfc565b9050600073ffffffffffffffffffffffffffffffffffffffff168173ffffffffffffffffffffffffffffffffffffffff1614611a785760006040517f73c6ac6e000000000000000000000000000000000000000000000000000000008152600401611a6f9190611ca2565b60405180910390fd5b505050565b6000604051905090565b600080fd5b600080fd5b60007fffffffff0000000000000000000000000000000000000000000000000000000082169050919050565b611ac681611a91565b8114611ad157600080fd5b50565b600081359050611ae381611abd565b92915050565b600060208284031215611aff57611afe611a87565b5b6000611b0d84828501611ad4565b91505092915050565b60008115159050919050565b611b2b81611b16565b82525050565b6000602082019050611b466000830184611b22565b92915050565b600081519050919050565b600082825260208201905092915050565b60005b83811015611b86578082015181840152602081019050611b6b565b60008484015250505050565b6000601f19601f8301169050919050565b6000611bae82611b4c565b611bb88185611b57565b9350611bc8818560208601611b68565b611bd181611b92565b840191505092915050565b60006020820190508181036000830152611bf68184611ba3565b905092915050565b6000819050919050565b611c1181611bfe565b8114611c1c57600080fd5b50565b600081359050611c2e81611c08565b92915050565b600060208284031215611c4a57611c49611a87565b5b6000611c5884828501611c1f565b91505092915050565b600073ffffffffffffffffffffffffffffffffffffffff82169050919050565b6000611c8c82611c61565b9050919050565b611c9c81611c81565b82525050565b6000602082019050611cb76000830184611c93565b92915050565b611cc681611c81565b8114611cd157600080fd5b50565b600081359050611ce381611cbd565b92915050565b60008060408385031215611d0057611cff611a87565b5b6000611d0e85828601611cd4565b9250506020611d1f85828601611c1f565b9150509250929050565b600080600060608486031215611d4257611d41611a87565b5b6000611d5086828701611cd4565b9350506020611d6186828701611cd4565b9250506040611d7286828701611c1f565b9150509250925092565b611d8581611bfe565b82525050565b6000602082019050611da06000830184611d7c565b92915050565b600080fd5b600080fd5b7f4e487b7100000000000000000000000000000000000000000000000000000000600052604160045260246000fd5b611de882611b92565b810181811067ffffffffffffffff82111715611e0757611e06611db0565b5b80604052505050565b6000611e1a611a7d565b9050611e268282611ddf565b919050565b600067ffffffffffffffff821115611e4657611e45611db0565b5b611e4f82611b92565b9050602081019050919050565b82818337600083830152505050565b6000611e7e611e7984611e2b565b611e10565b905082815260208101848484011115611e9a57611e99611dab565b5b611ea5848285611e5c565b509392505050565b600082601f830112611ec257611ec1611da6565b5b8135611ed2848260208601611e6b565b91505092915050565b600060208284031215611ef157611ef0611a87565b5b600082013567ffffffffffffffff811115611f0f57611f0e611a8c565b5b611f1b84828501611ead565b91505092915050565b600060208284031215611f3a57611f39611a87565b5b6000611f4884828501611cd4565b91505092915050565b611f5a81611b16565b8114611f6557600080fd5b50565b600081359050611f7781611f51565b92915050565b60008060408385031215611f9457611f93611a87565b5b6000611fa285828601611cd4565b9250506020611fb385828601611f68565b9150509250929050565b600067ffffffffffffffff821115611fd857611fd7611db0565b5b611fe182611b92565b9050602081019050919050565b6000612001611ffc84611fbd565b611e10565b90508281526020810184848401111561201d5761201c611dab565b5b612028848285611e5c565b509392505050565b600082601f83011261204557612044611da6565b5b8135612055848260208601611fee565b91505092915050565b6000806000806080858703121561207857612077611a87565b5b600061208687828801611cd4565b945050602061209787828801611cd4565b93505060406120a887828801611c1f565b925050606085013567ffffffffffffffff8111156120c9576120c8611a8c565b5b6120d587828801612030565b91505092959194509250565b600080604083850312156120f8576120f7611a87565b5b600061210685828601611cd4565b925050602061211785828601611cd4565b9150509250929050565b7f4e487b7100000000000000000000000000000000000000000000000000000000600052602260045260246000fd5b6000600282049050600182168061216857607f821691505b60208210810361217b5761217a612121565b5b50919050565b60006060820190506121966000830186611c93565b6121a36020830185611d7c565b6121b06040830184611c93565b949350505050565b7f416c726561647920636c61696d65640000000000000000000000000000000000600082015250565b60006121ee600f83611b57565b91506121f9826121b8565b602082019050919050565b6000602082019050818103600083015261221d816121e1565b9050919050565b7f4d617820737570706c7920726561636865640000000000000000000000000000600082015250565b600061225a601283611b57565b915061226582612224565b602082019050919050565b600060208201905081810360008301526122898161224d565b9050919050565b7f4e487b7100000000000000000000000000000000000000000000000000000000600052601160045260246000fd5b60006122ca82611bfe565b91507fffffffffffffffffffffffffffffffffffffffffffffffffffffffffffffffff82036122fc576122fb612290565b5b600182019050919050565b60008190508160005260206000209050919050565b60006020601f8301049050919050565b600082821b905092915050565b6000600883026123697fffffffffffffffffffffffffffffffffffffffffffffffffffffffffffffffff8261232c565b612373868361232c565b95508019841693508086168417925050509392505050565b6000819050919050565b60006123b06123ab6123a684611bfe565b61238b565b611bfe565b9050919050565b6000819050919050565b6123ca83612395565b6123de6123d6826123b7565b848454612339565b825550505050565b600090565b6123f36123e6565b6123fe8184846123c1565b505050565b5b81811015612422576124176000826123eb565b600181019050612404565b5050565b601f8211156124675761243881612307565b6124418461231c565b81016020851015612450578190505b61246461245c8561231c565b830182612403565b50505b505050565b600082821c905092915050565b600061248a6000198460080261246c565b1980831691505092915050565b60006124a38383612479565b9150826002028217905092915050565b6124bc82611b4c565b67ffffffffffffffff8111156124d5576124d4611db0565b5b6124df8254612150565b6124ea828285612426565b600060209050601f83116001811461251d576000841561250b578287015190505b6125158582612497565b86555061257d565b601f19841661252b86612307565b60005b828110156125535784890151825560018201915060208501945060208101905061252e565b86831015612570578489015161256c601f891682612479565b8355505b6001600288020188555050505b505050505050565b600081905092915050565b600061259b82611b4c565b6125a58185612585565b93506125b5818560208601611b68565b80840191505092915050565b60006125cd8285612590565b91506125d98284612590565b91508190509392505050565b600081519050919050565b600082825260208201905092915050565b600061260c826125e5565b61261681856125f0565b9350612626818560208601611b68565b61262f81611b92565b840191505092915050565b600060808201905061264f6000830187611c93565b61265c6020830186611c93565b6126696040830185611d7c565b818103606083015261267b8184612601565b905095945050505050565b60008151905061269581611abd565b92915050565b6000602082840312156126b1576126b0611a87565b5b60006126bf84828501612686565b91505092915050565b7f4e487b7100000000000000000000000000000000000000000000000000000000600052601260045260246000fd5b600060408201905061270c6000830185611c93565b6127196020830184611d7c565b939250505056fea264697066735822122032373559624fe0e71b4677958c980e1b310774207645ec6f1088d114fa63dd8164736f6c634300081e0033",
  "linkReferences": {},
  "deployedLinkReferences": {}
}